:020000040000FA
:0600000085EF18F012006C
:0A000600010058310000EC0000007A
:0400100002000000EA
:0C00140008EC0DF0FD0EDBCF22F0FE0E1C
:10002000DBCF23F0090E221801E1235002E19DEFFE
:1000300005F0080E221801E1235001E109D3070E53
:10004000221801E1235001E169D1060E221801E1D5
:10005000235001E150D1050E221801E1235001E1A6
:100060000BD1040E221801E1235001E1FDD0030E53
:10007000221801E1235001E197D0020E221801E17C
:10008000235033E0010E221802E0B7EF06F02350B0
:1000900002E0B7EF06F09CEC0CF0660E666F676F3F
:1000A000E60E22EC0DF0060E13EC0CF02B0EF7EC26
:1000B0000BF0650ECC6FCE0ECD6F450ECE6F440E9D
:1000C000CF6F280EC86F480EC96F0B0ECA6F440E53
:1000D000C8EC0BF0400EF86FDC0EF96F8B0EFA6F68
:1000E000430E68EC0CF0BCEF06F002EC0DF0190EBC
:1000F000646F3F0E656FCD0E666FCC0E676F8C0E12
:1001000022EC0DF0070E13EC0CF0230EF7EC0BF0C5
:100110002B0ECC6F730ECD6FDE0ECE6F420ECF6FF7
:100120003D0EC86F410EC96FF60ECA6F420EC8EC85
:100130000BF0F90EF86FC30EF96FCD0EFA6F410E8A
:1001400068EC0CF0C20E346F930E356F1D0E366FD7
:10015000430E376F540E306F470E316F9C0E326F67
:10016000430E336FE40E2C6F820E2D6F530E2E6FE5
:10017000430E2F6FDC0E286F8A0E296F9A0E2A6F9E
:10018000420E2B6F070E246FE30E256FEE0E266FC7
:10019000400E276F9A0E206F500E216FDD0E226FDA
:1001A000420E236FBCEF06F002EC0DF0646F3F0EC1
:1001B000656F330E666F676F686F400E696F050E6F
:1001C00073EC0DF0910E306FED0E316FB40E326F97
:1001D000400E336F9E0E646FEF0E656F770E666F85
:1001E000400E676F810E606F950E616FE30E626F58
:1001F000400E636F520E986FB80E996FAE0E9A6FE5
:100200003F0E9B6FBC0E946F740E956F0F0E966F22
:10021000410E976F9A0E906F990E916F110E926F1B
:10022000410E936F020ECC6F2B0ECD6FA70ECE6FCB
:100230003F0ECF6FD70EC86FA30EC96FF80ECA6FEF
:10024000400ECB6F140EC46FAE0EC56FA30EC66FFB
:10025000400EC76F0E0EC06F2D0EC16FE60EC26F3F
:10026000400EC36FBCEF06F09CEC0CF0330E666FD3
:10027000676F686F400E09D09CEC0CF0CD0E666F76
:10028000CC0E676F4C0E686F3F0E696F040E73ECF7
:100290000DF0D90E306F4E0E316FFB0E326F420EE5
:1002A000336FDF0E646FEF0E656FD70E666F430E10
:1002B000676FAC0E606F1C0E616F3B0E626F430E7A
:1002C000636FE10E986FBA0E996FB60E9A6F420E79
:1002D0009B6FD30E946F3D0E956F1D0E966F440E5F
:1002E000976F520E906F380E916FB40E926F420E50
:1002F000936FBCEF06F00001CD0E626FCC0E636F02
:10030000646F3D0E656F330E666F676FF30E22EC00
:100310000DF0080E99EC0AF0BCEF06F00001660E35
:10032000626F636F646F3F0E47EC0DF099EC0AF05B
:10033000870E9C6F7D0E9D6F240E9E6F440E9F6FE7
:100340000A0E986F1C0E996F350E9A6F440E9B6FB4
:100350000D0E946F3D0E956F250E966F440E976FA0
:10036000520E906F600E916F500E926F430E936F0E
:10037000F60E8C6F570E8D6F7E0E8E6F440E8F6F44
:10038000B40E886FD50E896F050E8A6F440E8B6F81
:10039000D00E846F100E856F190E866F440E876F16
:1003A000BB0E806FB20E816F820E826F430E836F21
:1003B000680ED06F850ED16F890ED26F430ED36F4A
:1003C000580ECC6F910ECD6F4B0ECE6F440ECF6F8B
:1003D000730EC86F510EC96F760ECA6F440ECB6F85
:1003E000070EC46F8C0EC56F5E0EC66F440EC76FCE
:1003F000F40EC06FC40EC16FEF0EC26F430EC36F19
:10040000CA0EBC6F190EBD6F8D0EBE6F440EBF6F4E
:100410001D0EB86FD30EB96F430EBA6F440EBB6F8B
:10042000AC0EB46F380EB56F090EB66F440EB76FD1
:10043000AC0EB06F220EB16F5B0EB26F430EB36F96
:10044000650E046F100E056F070E066F440E076FE2
:10045000E00E006F620E016F870E026F430E036F96
:100460000D0EFC6FC90EFD6F010EFE6F440EFF6F87
:10047000B10EF86FC20EF96FE30EFA6F430EFB6F09
:10048000010EF46FF40EF56FD40EF66F430EF76F96
:10049000D70EF06F2B0EF16F7B0EF26F420EF36FE3
:1004A000750EEC6F5D0EED6F600EEE6F440EEF6F2C
:1004B000860EE86F5C0EE96F8D0EEA6F430EEB6FF0
:1004C000D90EE46FB90EE56F310EE66F440EE76F9B
:1004D000560EE06F0A0EE16FE10EE26F430EE36F1E
:1004E000E60E386FCD0E396F060E3A6F440E3B6F35
:1004F000F80E346F7F0E356F220E366F440E376F55
:10050000870E306F810E316F0E0E326F440E336FD7
:10051000620E2C6F680E2D6F720E2E6F430E2F6FB2
:10052000670E286F4C0E296F2F0E2A6F440E2B6F0B
:100530008B0E246FBC0E256FF50E266F430E276FB2
:10054000A70E206F270E216F070E226F440E236F18
:100550001B0E1C6FA90E1D6FEF0E1E6F430E1F6F3B
:10056000370E186FDC0E196FFD0E1A6F430E1B6FDE
:10057000420E146FE40E156F9B0E166F430E176F2D
:100580001C0E106F800E116FD70E126F430E136F7B
:10059000A70E6C6F5C0E6D6F120E6E6F440E6F6F58
:1005A0001F0E686FA80E696FF00E6A6F430E6B6FB7
:1005B000F00E646F870E656F8C0E666F420E676F6C
:1005C000DF0E606FD60E616F600E626F430E636F59
:1005D000760E5C6F2F0E5D6F3A0E5E6F440E5F6F8E
:1005E0005E0E586F480E596F660E5A6F440E5B6F61
:1005F000580E546F500E556F4D0E566F440E576F78
:10060000E50E506F0E0E516FD30E526F430E536FA7
:10061000280E4C6FE90E4D6F840E4E6F440E4F6FD7
:10062000230E486F370E496F330E4A6F440E4B6FDF
:10063000370E446F990E456FFD0E466F430E476FA0
:10064000A90E406F520E416F1D0E426F430E73D2C2
:1006500002EC0DF0390E646F400E47EC0DF073ECB8
:100660000DF0160E306F670E316F860E326F420E30
:10067000336FA90E646F240E656F990E666F420E7C
:10068000676F360E606FB20E616F130E626F420EAF
:10069000636FF70E986F7A0E996F410E9A6F9B6F8A
:1006A000D80E946FC70E956F140E966F410E976F0C
:1006B0008B0E906F3B0E916F210E926F410E936FD8
:1006C0003E0ECC6F6A0ECD6FC90ECE6F410ECF6F4E
:1006D000C20EC86F7C0EC96F240ECA6F420ECB6F5C
:1006E000C469C00EC56FAA0EC66F420EC76F3D0E1D
:1006F000C06F7F0EC16FF40EC26F3F0EC36FC00E8E
:10070000006F6C0E016FA00E026F420E036FE30EBE
:10071000FC6FDF0EFD6FB40EFE6F420EFF6F3E0EDC
:10072000F86FC40EF96F4F0EFA6F420EFB6F0C0E8E
:10073000F46FED0EF56FB40EF66F420EF76FA20E6A
:10074000F06F8E0EF16FA00EF26F410EF36FD80EA8
:10075000346F260E356FCA0E366F410E376F940E0A
:10076000306FF90E316F910E326F410E336F7F0E85
:100770002C6F820E2D6FC60E2E6F420E2F6F5A0EEB
:10078000286FC60E296F840E2A6F410E2B6FD50E6F
:10079000246FE60E256FAA0E266F420E276FE60E17
:1007A000206F216B4B0E226F420E236FEA0E686F93
:1007B000B90E696F2F0E6A6F410E6B6F4F0E646F2B
:1007C000C90E656FAC0E666F420E676FB90E606F33
:1007D0000E0E616F400E626F420E636FB60E5C6F5D
:1007E000A30E5D6F9C0E5E6F420E5F6F1B0E586F07
:1007F000F20E596F760E5A6F420E5B6FD40E546F25
:10080000310E556F580E566F420E576F1E0E506FB9
:10081000FE0E516FC70E526F400E536F700E9C6FDD
:10082000D80E9D6F670E9E6F420E9F6F3E0E986FA3
:10083000810E996FC30E9A6F410E9B6FD70E946F06
:10084000D00E956F730E966F420E976F1C0E906FC1
:10085000050E916F060E926F410E936FBA0E8C6F5C
:10086000FE0E8D6F8A0E8E6F410E8F6F3B0E886F5E
:100870005B0E896F0D0E8A6F420E8B6F100E846FA8
:10088000340E856F440E866F410E876FD60E806FD3
:10089000950E816F750E826F420E836F9F0ED06F23
:1008A000150ED16F960ED26F420ED36F090ECC6F1C
:1008B000560ECD6F640ECE6F410ECF6F9A0EC86F7D
:1008C0008B0EC96FAA0ECA6F420ECB6F390EC46F62
:1008D000600EC56FB40EC66F420EC76FCF0EC06FED
:1008E000130EC16F9F0EC26F420EC36F500EBC6FCE
:1008F000CE0EBD6FBE6B430EBF6FEC0EB86F980E81
:10090000B96FA60EBA6F420EBB6FC60EB46F8A0ED9
:10091000B56F430EB66F420EB76F620EB06F150E15
:10092000B16F990EB26F410EB36F4C0E046F060E8D
:10093000056F210E066F420E076F7F0E006F8B0E44
:10094000016F8D0E026F420E036F960EFC6F210E2B
:10095000FD6F990EFE6F410EFF6F870EF86F150E3B
:10096000F96F5E0EFA6F420EFB6F130EF46F400EBE
:10097000F56FCF0EF66F410EF76F770EF06FBD0E6D
:10098000F16F320EF26F400EF36FA40EEC6FEB0EB0
:10099000ED6FC20EEE6F420EEF6F170EE86F720E24
:1009A000E96FA50EEA6F420EEB6F360EE46F760E1E
:1009B000E56F2E0EE66F410EE76FB30EE06F520E3D
:1009C000E16F480EE26F420EE36F5E0E386FDE0E8F
:1009D000396F1C0E3A6F420E3B6F850E346F3569CE
:1009E000470E366F420E376F3A0E306F0C0E316F76
:1009F0008C0E326F420E336F880E2C6FA10E2D6F4E
:100A0000290E2E6F420E2F6F210E286FCD0E296FEB
:100A1000980E2A6F3F0E2B6F2B0E246FF20E256F50
:100A2000B60E266F420E276F6C0E206F7A0E216F66
:100A3000220E226F420E236F6D0E1C6FA40E1D6FCF
:100A40009E0E1E6F420E1F6FC70E186F0D0E196F90
:100A5000F70E1A6F400E1B6F440E146F880E156F41
:100A60003C0E166F410E176FC70E106F010E116FFF
:100A7000F80E126F410E136F350E6C6FE50E6D6F31
:100A8000AA0E6E6F420E6F6F7C0E686FA00E696FBC
:100A9000A20E6A6F420E6B6F110E646FFC0E656FD3
:100AA000A10E666F3F0E676FF40E606FB60E616F3A
:100AB000C60E626F410E636F650E5C6FF70E5D6F61
:100AC000320E5E6F420E5F6FB40E586F0B0E596F91
:100AD000A90E5A6F410E5B6FF30E546F0A0E556FDD
:100AE000AA0E566F410E576F540E506FEE0E516F97
:100AF000B00E526F410E536F040E4C6F250E4D6FAA
:100B00007D0E4E6F420E4F6F670E486FE40E496FB9
:100B1000860E4A6F410E4B6FCB0E446F4D0E456FE4
:100B2000E60E466F400E476FA30E406F4A0E416FB0
:100B3000650E426F420E436F1FD10001626B636B03
:100B4000646B400E656F666B676B686F696F0A0E4A
:100B500073EC0DF0306B316B860E326F420E336FDB
:100B6000646B656B980E666F420E676F606B616BAE
:100B7000100E626F420E636F986B996B400E9A6F06
:100B8000410E9B6F946B956B100E966F410E976F95
:100B9000906B916B200E926F410E936FCC6BCD6B6F
:100BA000C80ECE6F410ECF6FC86BC96B240ECA6FD3
:100BB000420ECB6FC46BC56BAA0EC66F420EC76FD9
:100BC000C06BC16B800EC26F3F0EC36F006B016BB9
:100BD000A00E026F420E036FFC6BFD6BB40EFE6F36
:100BE000420EFF6FF86BF96B4C0EFA6F420EFB6F03
:100BF000F46BF56BB40EF66F420EF76FF06BF16BA2
:100C0000A00EF26F410EF36F346B356BC80E366F6A
:100C1000410E376F306B316B900E326F410E336F78
:100C20002C6B2D6BC60E2E6F420E2F6F286B296B0F
:100C3000800E2A6F410E2B6F246B256BAA0E266F38
:100C4000420E276F206B216B480E226F420E236FDE
:100C5000686B696B200E6A6F410E6B6F646B656B1E
:100C6000AC0E666F420E676F606B616B400E626F19
:100C7000420E636F5C6B5D6B9C0E5E6F420E5F6F2E
:100C8000586B596B740E5A6F420E5B6F546B556BF9
:100C9000580E566F420E576F506B516BC00E526F0D
:100CA000400E536F9C6B9D6B640E9E6F420E9F6F48
:100CB000986B996BC00E9A6F410E9B6F946B956BFE
:100CC000700E966F420E976F906B916B926B410E08
:100CD000936F8C6B8D6B880E8E6F410E8F6F886B50
:100CE000896B0C0E8A6F420E8B6F846B856B400E86
:100CF000866F410E876F806B816B740E826F420E20
:100D0000836FD06BD16B960ED26F420ED36FCC6BCC
:100D1000CD6B600ECE6F410ECF6FC86BC96BAA0E44
:100D2000CA6F420ECB6FC46BC56BB40EC66F420E5A
:100D3000C76FC06BC16B9E0EC26F420EC36FBC6BA0
:100D4000BD6BBE6B430EBF6FB86BB96BA60EBA6FAF
:100D5000420EBB6FB46BB56B400EB66F420EB76FF1
:100D6000B06BB16B980EB26F410EB36F05D0E40E4D
:100D7000006E300E32EC0DF019EF0DF0896A8A6AC0
:100D80008B6A8C6A8D6A926A936A946A956A966A8B
:100D90001200320EE66EE66A2C0EE66EB4EC16F029
:100DA000E552E552E552120008EC0DF00C0EE1267A
:100DB000DE6ADE6ADE6ADD6ADD52DD52040EDB6A5F
:100DC000050EDB6A060EDB6A070EDB6A010EF36EA8
:100DD000080EF3CFDBFF090EDB6A0A0EDB6A0B0E8F
:100DE000DB6ABCEC0CF08BEC0DF035EC15F0010A75
:100DF00013E1E20E006E300E32EC0DF0006A016A73
:100E0000800E026EBF0E036E33EC0CF054EC14F047
:100E1000D5EC0CF0ACA2FED7FB0EDBCF21F0FC0E24
:100E2000DBCF22F0FD0EDBCF23F0FE0EDBCF24F074
:100E3000EEEC14F020C0DEFF21C0DEFF22C0DEFF9A
:100E400023C0DDFFDD52DD52D9CFE9FF5DEC0CF0B0
:100E5000DE0E006E300E77EC0DF0D9CFE9FFDACF61
:100E6000EAFF4FEC0DF004C020F005C021F006C0F1
:100E700022F007C023F0A2EC13F058EC0DF033EC95
:100E80000CF0BDEC13F0D5EC0CF0FA0EDB500008C2
:100E900001E379D0FA0EDB50080812E2080EDB6A93
:100EA000CA0EF36E090EF3CFDBFF9A0EF36E0A0E35
:100EB000F3CFDBFF3B0EF36E0B0EF3CFDBFF23D044
:100EC000FA0EDB5000081FE2D950080FE96EDACFA6
:100ED000EAFF0A0E256E266A276A286AEECF20F0FE
:100EE000EECF21F0EECF22F0EFCF23F03BEC17F066
:100EF0001FC0EDFF1EC0EDFF1DC0EDFF1CC0EFFFCA
:100F0000FA0EDB06DDD7BCEC0CF0080EDBCF08F0E8
:100F1000090EDBCF09F00A0EDBCF0AF00B0EDBCF98
:100F20000BF008C020F009C021F00AC022F00BC06D
:100F300023F0A2EC13F021C004F022C005F023C07E
:100F400006F024C007F0DEEC0CF026EC0DF054ECBB
:100F500014F0EEEC14F0040E20C0DBFF050E21C0EF
:100F6000DBFF060E22C0DBFF070E23C0DBFFACA2B7
:100F7000FED7D950040FE96E5DEC0CF0D90E006E6F
:100F8000300E77EC0DF0ACA2FED70C0EE15C02E265
:100F9000E16AE552E16E19EF0DF008EC0DF0230E59
:100FA000E1260E0EDB6A0F0EDB6A100EDB6A110EF5
:100FB000DB6A010EF36E140EF3CFDBFF150EDB6A56
:100FC0001DEC0DF029EC0CF0E8AE02D0613502D03A
:100FD000D0EC0CF012E261EC0DF06F0EEF6E2FEC26
:100FE0000DF07DEC0DF037EC0DF07DEC0DF0120EF8
:100FF000DB2A130EE7E3DB2AE5D7780EDF6EB26B50
:10100000B36BB46BB56B0C0EDB6A0D0EDB6A140EA2
:10101000DBCF00F0150EDBCF01F001506119E8AE17
:1010200002D0613502D0D0EC0CF001E35DD11F0E8F
:10103000DB6A200EDB6A800EF36E210EF3CFDBFF3E
:101040007F0EF36E220EF3CFDBFF1DEC0DF029ECCB
:101050000CF0E8AE02D0613502D0D0EC0CF001E328
:10106000F7D00C0EDBCF04F00D0EDBCF05F07AECE1
:101070000CF0120EDBCF27F0130EACDB25EC15F0D5
:10108000010A01E1DED039DB66C026F067C027F037
:1010900068C028F069C029F062C021F063C022F066
:1010A00064C023F065C024F0BEEC13F021C00AF048
:1010B00022C00BF023C00CF024C00DF0DEEC0CF0CD
:1010C0004BDBEECF0EF0EECF0FF0EECF10F0EFCF08
:1010D00011F0E7EC0CF0BEEC13F0170E21C0DBFFB3
:1010E000180E22C0DBFF190E23C0DBFF1A0E24C02E
:1010F000DBFF03DB62C026F063C027F064C028F08A
:1011000065C029F029DBF0EC0CF00AC026F00BC01A
:1011100027F00CC028F00DC029F0BEEC13F01B0E18
:1011200021C0DBFF1C0E22C0DBFF1D0E23C0DBFF36
:101130001E0E24C0DBFFA6EC0CF013E12FEC0DF02B
:10114000AEEC0CF0170EDBCF06F0180EDBCF07F07D
:10115000190EDBCF08F01A0E9DDB2CEC15F0010AFE
:1011600048E02FEC0DF0F0EC0CF0170EDBCF0EF09A
:10117000180EDBCF0FF0190EDBCF10F01A0EDBCFFD
:1011800011F0E7EC0CF00AC021F00BC022F00CC00B
:1011900023F00DC024F025EC15F0010A52E137ECE4
:1011A0000DF0EECF12F0EECF13F0EECF14F0EFCF44
:1011B00015F01B0EDBCF16F01C0EDBCF17F01D0E4B
:1011C000DBCF18F01E0EDBCF19F016C026F017C0CB
:1011D00027F018C028F019C029F012C021F013C060
:1011E00022F014C023F015C024F035EC15F0010AEC
:1011F00028E13DEC0DF06A0EE926000EEA220C0E05
:10120000DBCFEEFF0D0EDBCFEDFF2FEC0DF0170E59
:10121000DBCFEEFF180EDBCFEEFF190EDBCFEEFFBC
:101220001A0EDBCFEEFF37EC0DF01B0EDBCFEEFF1F
:101230001C0EDBCFEEFF1D0EDBCFEEFF1E0EDBCF55
:10124000EEFF120EDB2A130E01E201D7DB2AFFD6D6
:10125000F4DBFFDAE8AE02D0613501D0A1DB33E286
:1012600075DB2BE12FEC0DF079DB1F0EDBCF06F0E9
:10127000200EDBCF07F0210EDBCF08F0220E0ADBB9
:1012800035EC15F0010A19E1EADB1F0EEECFDBFFAA
:10129000200EEECFDBFF210EEECFDBFF220EEECFD6
:1012A000DBFF120EDBCF22F0130EDBCF23F00C0E90
:1012B00022C0DBFF0D0E23C0DBFF120EDB2A130E54
:1012C000C8E3DB2AC6D70C0EDB50D924E96E0D0E1D
:1012D000DB50DA20EA6E780EEF6E140EDB2A150E64
:1012E00001E295D6DB2A93D6010EF36E120EF3CFF0
:1012F000DBFF130EDB6AADDAE8AE02D0613501D058
:101300004FDB2BE2ACDBE6DB0E0EDBCF04F00F0E87
:10131000DBCF05F0100EDBCF06F0110EDBCF07F0B0
:1013200004C026F005C027F006C028F007C029F049
:101330008DDBBEEC13F00E0E21C0DBFF0F0E22C0C2
:10134000DBFF100E23C0DBFF110E24C0DBFF120EEB
:10135000DB2A130ED0E3DB2ACED70E0EDBCF00F054
:101360000F0EDBCF01F0100EDBCF02F0110EDBCF42
:1013700003F000C020F001C021F002C022F003C041
:1013800023F0230EE15C02E2E16AE552E16E51D303
:101390003FDB0A0EE126060EDB6A070EDB6A080E4B
:1013A000DB6A090EDB6AEADCF4DC360EE66E300E30
:1013B000E66E000EE66EA6EC17F0E552E552E55239
:1013C0009EAAFED7FCEC17F0006E016A00BE016811
:1013D000300E005E000E015A040E00C0DBFF050E49
:1013E00001C0DBFFDE6ADD6A1DDB01E616DB20E201
:1013F000020EDB6A030EDB6ACCDAD890015001E6FC
:101400000CDB11E2DECF00F0DDCF01F084DA7CDB13
:10141000F0DAEE6AEE6AEE6AEE6A020EDB2A030E7C
:10142000EBE3DB2AE9D7DF2A010EDEE3DB2ADCD798
:10143000040EDBCFE6FF050EDBCFE6FF0AEC00F083
:10144000E552E552DE6ADD6AEDDA01E6E6DA50E2FF
:10145000020EDB6A030EDB6A9CDAD890015001E6CB
:10146000DCDA41E2DECF04F0DDCF05F043DA020E34
:10147000DBCF27F0030EAED92CEC15F0010A2DE1DD
:10148000DECF06F0DDCF07F0300E0702F3CF07F016
:101490000602F3CF06F0F4500726000E0626040ECF
:1014A0000722040E226E236A2FDBC1EC14F00650D3
:1014B0002024E96E07502120EA6E50DA6ADA2BDA2E
:1014C000DECF27F0DDCF28F094DA02C0EEFF03C0B4
:1014D000EEFF04C0EEFF05C0EEFF020EDB2A030E96
:1014E000BBE3DB2AB9D7DF2A010EAEE3DB2AACD798
:1014F00054DD060E20C0DBFF070E21C0DBFF080E07
:1015000022C0DBFF090E23C0DBFFC90E006E300EC8
:10151000A9DA030EE66ED950060FE96ECED944DC87
:10152000006E050EE15E0050C60E006E300E9ADAB7
:101530003CD7D9DAC50E306F990E316FB70E326FC6
:10154000430E336F950E646F240E656F420E666F07
:10155000440E676F230E606F3B0E616F1F0E626F4C
:10156000440E636FEC0E986F050E996F320E9A6FF2
:10157000440E9B6F1F0E946F530E956F310E966F36
:10158000440E976FEE0E906F840E916F630E926F04
:10159000440E936F520ECC6F4B0ECD6F670ECE6F15
:1015A000440ECF6F980EC86F8F0EC96FAA0ECA6F08
:1015B000430ECB6F200EC46F580EC56F2B0EC66F37
:1015C000440EC76F7F0EC06FF40EC16FC80EC26F9E
:1015D000430EC36F300E006F1B0E016FF00E026FD3
:1015E000430E036FFC0EFC6F9B0EFD6F130EFE6F20
:1015F000440EFF6F0F0EF86FF10EF96F170EFA6FB2
:10160000430EFB6FA20EF46F9D0EF56F450EF66F45
:10161000440EF76F750EF06F040EF16F340EF26F1B
:10162000440EF36FDB0E346F440E356F610E366F70
:10163000430E376FCD0E306F8F0E316F010E326F4C
:10164000440E336F500E2C6FD00E2D6F470E2E6F41
:10165000440E2F6FCB0E286F980E296F580E2A6FED
:10166000430E2B6FDB0E246F5C0E256F760E266FFC
:10167000440E276F0E0E206FB00E216F540E226F96
:10168000440E236FCF0E686F7D0E696F6A69430E3B
:101690006B6F540E646F320E656F8F0E666F430E64
:1016A000676FEC0E606F616B090E626F440E636FC3
:1016B000EE0E5C6F280E5D6FBD0E5E6F430E5F6FAA
:1016C000586FDE0E596FB40E5A6F430E5B6F1D0ECE
:1016D000546F830E556F0A0E566F440E576FFC0EF3
:1016E000506F8F0E516F170E526F440E536F1200D2
:1016F000C4D9D890E936EA3612000C0EDBCF08F0D8
:101700000D0EDBCF09F0300E0902F3CF09F008020D
:10171000F3CF08F0F4500926000E0826040E092223
:10172000040E226E236A120EDBCF27F0130EDBCFDE
:1017300028F0C1EC14F008502024E96E0950212053
:10174000EA6E4FEF0DF0016E026A00C0E6FFE66E32
:1017500002C0E6FF68EF16F004C021F005C022F0D9
:1017600006C023F007C024F054EC14F0A1D90C0EED
:10177000DBCFE9FF0D0EDBCFEAFFD890E936EA3682
:10178000D890E936EA36B20EE926000EEA221200B7
:10179000CB6F570EC46FE20EC56FED0EC66F430ED2
:1017A000C76FE20EC06FF90EC16F120EC26F440E0A
:1017B000C36F200E006FAD0E016F1F0E026F440E3F
:1017C000036F650EFC6F4E0EFD6F950EFE6F430EA0
:1017D000FF6F1200DBCF28F0C1EC14F0045020247E
:1017E000E96E05502120EA6E75D98BEF0DF0626F1E
:1017F000440E636F290E986F7A0E996F710E9A6F6F
:10180000430E9B6FB00E946F390E956F040E966F5A
:10181000440E976F950E906F7E0E916F5E0E926FD5
:10182000440E936F12005FD9E70E306FB00E316F28
:10183000B60E326F430E336F9A0E646F970E656F5C
:10184000A10E666F430E676F030E606FE50E616F4A
:101850001200120EDBCF00F0130EDBCF01F00001FF
:10186000015061191200D950FB0FE96EFF0EDA200A
:10187000EA6EEECF21F0EECF22F0EECF23F0EFCFE5
:1018800024F000C026F001C027F002C028F003C0F9
:1018900029F01200DBCF09F006C026F007C027F0C0
:1018A00008C028F009C029F002C021F003C022F0CE
:1018B00004C023F005C024F01200DACFEAFFEECF17
:1018C000E6FFEECFE6FFEECFE6FFEFCFE6FF12003A
:1018D000FB6F120EF46F450EF56F120EF66F440E8D
:1018E000F76FB00EF06F7D0EF16F6A0EF26F440E5F
:1018F000F36F1200300E0502F3CF05F00402F3CFB0
:1019000004F0F4500526000E0426040E0522040EF1
:10191000226E236A1200300E0102F3CF01F00002A2
:10192000F3CF00F0F4500126000E0026040E012231
:10193000040E226E236A12000001CD0E626FCC0EDF
:10194000636F4C0E646F3E0E656F1200D9CF00F0CE
:10195000DACF01F0B6D8EF506F081200EECF02F0E8
:10196000EECF03F0EECF04F0EFCF05F01200820EC1
:10197000E926000EEA221200FB0EDBCF00F0FC0E7F
:10198000DBCF01F0FD0EDBCF02F0FE0EDBCF03F06C
:101990001200020EDBCF00F0030EDBCF01F01200CD
:1019A0006051005C61510158120024C0EDFF23C05A
:1019B000EDFF22C0EDFF21C0EFFF120021C026F095
:1019C00022C027F023C028F024C029F012000EC046
:1019D00026F00FC027F010C028F011C029F0120027
:1019E000EECF0AF0EECF0BF0EECF0CF0EFCF0DF014
:1019F0001200C1EC14F000502024E96E01502120A7
:101A0000EA6E120000019A0E626F990E636F120067
:101A1000D9CFE6FFE1CFD9FF12000C0E005C000E1B
:101A200001581200DECF00F0DDCF01F0D890015058
:101A30001200E552E7CFD9FF1200120EDB6A130E37
:101A4000DB6A1200686F3F0E696F120000C021F060
:101A500001C022F002C023F003C024F0120048DECF
:101A6000B7EF0CF070DEE552E552E552120040DEB1
:101A7000B20EE926000EEA221200120EDBCFE9FFB9
:101A8000130EDBCFEAFFD890E936EA361200656F15
:101A90009A0E666F990E676FD5DF0C0E1200EECFAF
:101AA00004F0EECF05F0EECF06F0EFCF07F0120016
:101AB00021C000F022C001F023C002F024C003F0D6
:101AC0001200120EDB50D924E96E130EDB50DA201F
:101AD000EA6E1200EECF00F0EECF01F0EECF02F092
:101AE000EFCF03F01200606F616B040112002BDE78
:101AF000036E070EE15E03501200EE6AEE6A800E7E
:101B0000EE6E7F0EEE6E1200020EDBCF27F0030E9C
:101B1000DBCF28F01200266A276A286A296A26EF96
:021B20000DF0C6
:0E1B2200CDEC12F0FB0EDBCFF3FFDB06F35031
:101B300000090AE01BEC13F0FA0E86EC13F0F3E157
:101B4000011CF1E1010E01D0000EFCEF12F0CDEC12
:101B500012F03B0EE12402E3E168E652E16E010E71
:101B6000DB6A020EDB6AF90EDBCFF6FFFA0EDBCF83
:101B7000F7FFFB0EDBCFF8FF0800F550DF6EDF50FC
:101B800002E120EF12F0250EDF5C02E013EF12F00D
:101B9000030EDB6A040EDB6A050EDB6A060EDB6AE7
:101BA000070EDB6A35EC12F02D0EDF5C0CE02B0E1D
:101BB000DF5C09E0200EDF5C06E0230EDF5C03E063
:101BC000300EDF5C1AE1DF50300A14E0130A0FE038
:101BD000030A0AE00B0A05E0060AE4E1030EDB80D3
:101BE000E1D7030EDB82DED7030EDB84DBD7030EE7
:101BF000DB86D8D7030EDB88D5D72A0EDF5C1BE146
:101C000031EC12F07FEC12F010E0030EDB80226862
:101C10002368130EDBCF27F0140EDBCF28F0C1ECC6
:101C200014F0040E20C0DBFF03D0130E68EC12F09A
:101C300035EC12F00BD0090EDB6AD6EC12F003E0A3
:101C40004AEC13F0FAD7090E68EC12F0030EDBB081
:101C5000DB982E0EDF5C1BE135EC12F02A0EDF5C08
:101C60000BE131EC12F07FEC12F003E1130EBAEC51
:101C700012F035EC12F00BD0090EDB6AD6EC12F044
:101C800003E04AEC13F0FAD7090EBAEC12F0680E32
:101C9000DF5C07E135EC12F0680EDF5C1DE1030E3E
:101CA00018D0740EDF5C17E07A0EDF5C14E0480E8B
:101CB000DF5C06E0540EDF5C03E05A0EDF5C02E1FD
:101CC000020E07D06C0EDF5C03E06A0EDF5C04E1FD
:101CD000010E0DEC13F0C9DBDF506E0A01E17FD37A
:101CE0001E0A01E192D1200A01E18FD13F0A01E1F0
:101CF00049D11A0A01E146D10D0A01E143D1200A76
:101D000001E140D13A0A01E13DD1200A01E13AD195
:101D1000260A01E135D10D0A01E132D11A0A01E1A9
:101D2000D9D0200A4AE0300A1FE0460A0EE0250A10
:101D300001E083D3D950F90FE96EFF0EDA20EA6E85
:101D4000010EEE5E000EEE5AEE5A1BEC13F0250E5D
:101D5000E66E95DB03E1011C01E169D317EC13F09A
:101D600001E26BD3DB2A69D3080EDB6A040EDB5079
:101D7000010806E2040EDB04DFEC12F0DB508BDB23
:101D8000080EDB5009E0030EDB50010B05E172DBAE
:101D900001E04DD3080EDB6A64DBEFCFDFFF8FEC91
:101DA00013F003E1011C01E142D317EC13F001E34E
:101DB000DB2A60DB01E141D33AD3070EDB50020896
:101DC0000FE15BEC13F0030E22EC13F00E0EEECFDE
:101DD000DBFF0F0EEECFDBFF100EEECFDBFF20D0D0
:101DE000F70EDBCF03F0F80EDBCF04F0020E035E3C
:101DF000000E045AF70E03C0DBFFF80E04C0DBFF31
:101E000003C0E9FF04C0EAFF12EC13F0026A0E0EF1
:101E100000C0DBFF0F0E01C0DBFF100E02C0DBFFB6
:101E20000E0EDBCFE6FF0F0EDBCFE6FF100EDBCF93
:101E3000E6FF81EC17F0E552E552E552130E21C0A2
:101E4000DBFF140E22C0DBFF060EDB5005E0130E95
:101E500056EC13F001E26ADB7AEC13F002E2130EA7
:101E600037DB3DEC13F006E0040E56EC13F002E213
:101E7000050E2EDB030EDBB005D0FCDA01E0D7D275
:101E8000080EDB6A090EDB6A0E0EDBCFF6FF0F0EC3
:101E9000DBCFF7FF100EDBCFF8FF0800F550DF6E49
:101EA000DF5014E080EC13F011E28FEC13F003E14B
:101EB000011C01E1BCD2BBDB01E3DB2A090EDB2AFA
:101EC000D9500E0FE96E000ECBDBE7D7D3DA01E174
:101ED000B4D2ADD2C6DA110EEECFDBFF120EEDCFCB
:101EE000DBFF110EDBCFE6FF120EDBCFE6FF73EC5C
:101EF00017F0E552E552130EF3CFDBFF140EF4CFCB
:101F0000DBFF060EDB5004E0130ED0DB01E20EDB3C
:101F10007AEC13F002E2130EDBDAAFDB05E0040E1D
:101F2000C5DB02E2050ED4DA030EDBB005D0A2DA7F
:101F300001E07DD2080EDB6A090EDB6A110EDBCFF1
:101F4000E9FF120EDBCFEAFFEFCFDFFFDF5014E037
:101F5000D7DB12E2E4DB03E1011C01E168D267DBBD
:101F600001E3DB2A090EDB2A110EDB2ADBCFE9FFB6
:101F7000120EE8E3DB2AE6D77DDA01E15ED257D222
:101F8000030EDB8E070EDB0410E195DB040E5ADB3B
:101F90000A0EEECFDBFF0B0EEECFDBFF0C0EEECF0B
:101FA000DBFF0D0EEECFDBFF6CD0070EDB5003081E
:101FB0002CE1030EDBAE0DD0B2DA020E76DAEFCFF3
:101FC00000F0016A026A036A00AE39D00168026853
:101FD00035D0F70EDBCF01F0F80EDBCF02F0020EAA
:101FE000015E000E025AF70E01C0DBFFF80E02C0C0
:101FF000DBFF01C0E9FF02C0EAFFEFCF00F00A0EED
:1020000000C0DBFF0B0EDB6A38D0070EDB50020886
:1020100009E1030EDBAE04D059DB02AE10D00ED0C6
:1020200055DB0DD0030EDBAE12D079DA020E3DDAAD
:10203000F9DA026A036A01AE02D002680368E2DAE2
:102040000C0E02C0DBFF0D0E03C0DBFF1AD0F70E33
:10205000DBCF02F0F80EDBCF03F0020E025E000EC3
:10206000035AF70E02C0DBFFF80E03C0DBFF02C00D
:10207000E9FF03C0EAFFD6DAC5DA0C0EDB6A0D0E03
:10208000DB6A060EDB5005E1010EF36E050EF3CFA1
:10209000DBFF150EDB6A160EDB6AD950370F006EB8
:1020A000000EDA20016E390E00C0DBFF3A0E01C0CF
:1020B000DBFF380EDB6A080EDB6A0A0EAEDADF5091
:1020C000780A12E0200A10E0280A0CE0200A0AE050
:1020D0003F0A06E00D0A02E0200A08E1020E05D0E0
:1020E000080E03D0080EDF26100E97DA030EDBBEB3
:1020F00002D0DB92DB94DB50800B24E08ADAD890AC
:10210000030EEB50000A08E6000EEE5C000EEE58DF
:10211000000EEE58000EEE5815E213DA2568266818
:10212000276828683BEC17F00A0E1CC0DBFF0B0E7B
:102130001DC0DBFF0C0E1EC0DBFF0D0E1FC0DBFF42
:102140002D0E08D0030EDBA202D02B0E03D0DBA491
:1021500008D0200EF36E170EF3CFDBFF150EDB2A2F
:1021600002D0170EDB6A050EDB5003E1B7D901E19F
:1021700089D0420E006E310E016E000E026E070E07
:10218000DBCF03F0046A056A066A03C025F004C0C9
:1021900026F005C027F006C028F0D3D9D8EC17F0F8
:1021A00000501C24F36E01501D20F46E02501E20BE
:1021B000F86EF4CFF7FFF3CFF6FF0800090EF5CF66
:1021C000DBFF580EDF5C0FE1610EF36E090E7BD969
:1021D0000AE3200E006E090EDBCFE7FF0050E75E3A
:1021E000090EE7CFDBFF070EDBCF00F0016A026AC2
:1021F000036A0FDA00C025F001C026F002C027F004
:1022000003C028F0EECF20F0EECF21F0EECF22F089
:10221000EFCF23F0D8EC17F023C0EDFF22C0EDFF85
:1022200021C0EDFF20C0EFFF390EDBCFE9FFDB0659
:102230003A0EDBCFEAFF01E2DB06090EDBCFEFFF50
:10224000150EDB2A4BD995E1030EDBA61DD06F0ED0
:10225000DF5C06E1C1D918E3150EDB285BDA14D088
:10226000780EDF5C09E0580EDF5C06E0620EDF5C92
:1022700003E0420EDF5C08E1020EF36E160EF3CFB0
:10228000DBFF02D0150EDB6A030EDB50100B0EE0F5
:10229000040EDBCF00F0050EDB50D880005406E2C0
:1022A000060EDB5003E1040EDB5034DA95D90AE266
:1022B000050EDBCFE7FF150EDB50E75E050EE7CF1F
:1022C000DBFF02D0050EDB6A040EDBCF00F0160E3A
:1022D00045D9D880005414E2160EDBCFE6FF150E68
:1022E000DBCFE6FF040EDBCFE6FF050EDB50E55249
:1022F000E75CE552D880E754E552D880E7545FD9CF
:10230000030EDB50010B0BE1080EDB5008E0B2D8E6
:1023100001E08DD0080EDB50BED8080EDB6A170E28
:10232000DB5007E088D9170EF1D903E1011C01E168
:102330007ED0160EDB5016E07ED9300EE66E9FD8AA
:1023400002E1011C74E077D9DFCFE6FFF9EC16F06B
:10235000E552E552E552F4CF01F00001F31C02E131
:10236000011C65E0050EDBCF00F0160EDB50D880B7
:10237000005409E2050EDBCFE7FF160EDB50E75EE7
:10238000050EE7CFDBFF300EE66E050ECBD94FE131
:10239000390EDB2ADBCFE9FF3A0E01E3DB2ADBCF84
:1023A000EAFF090EEFCFDBFFDB500EE044D9090E48
:1023B000ADD902E1011C3BE0390EDB2ADBCFE9FF9E
:1023C0003A0EEDE3DB2AEBD755D831E1160EDBCF21
:1023D000E6FF080EC3D8E552E7245DD82ED0070EDD
:1023E000DB50030A1CE0010A14E0030A07E07BD972
:1023F000DBCFEEFF020EDBCFEDFF1FD0F5D8056A75
:1024000003AE02D0046805682CD8BCD805C0EEFF26
:1024100014D0EAD803BE046824D8B4D80ED063D947
:10242000DBCFEFFF0AD07BD905E1011C03E1F368A4
:10243000F46810D0FCD801E3DB2A79D9BCEF0DF0A9
:10244000010EDBCF00F0020EDBCF01F000C0F3FF86
:1024500001C0F4FF3B0EE15C02E2E16AE552E16E8D
:10246000CBD029D9020E22EF13F061D90800F55024
:10247000DF6E1200200EE66E080E92EF13F0F9ECFC
:1024800016F0E552E552E552F3CF00F0F4CF01F03B
:102490000001F31C1200006E016AD950010F4DD9E2
:1024A0000050EE260150ED221200045E000E055A87
:1024B000F70E04C0DBFFF80E05C0DBFF04C0E9FF28
:1024C00005C0EAFF1200DBCFF4FFF350F45C12000A
:1024D000DB50E76E040EE7CFDBFF12000A0EDBCF06
:1024E00000F00B0EDBCF01F00C0EDBCF02F00D0E77
:1024F000DBCF03F000500110021003101200130E86
:10250000EECFDBFF140EEDCFDBFF130EDBCF00F0C1
:10251000140EDBCF01F00001800E01141200F70E43
:10252000DBCF04F0F80EDBCF05F01200050EDB5018
:10253000E66ED950130F01D9E552E750EE6EED6A01
:1025400012000A0EDBCF20F00B0EDBCF21F00C0EB9
:10255000DBCF22F00D0EDBCF23F01200DBCFE6FF46
:10256000150EDBCFE6FF050EDB50E552E724E55202
:10257000E7241200DB50CED8010EF36E060EF3CF27
:10258000DBFF1200EE50EFCFEAFFE96E02C0EEFF74
:1025900003C0EEFF04C0EEFF1200D9CFE6FFDACF92
:1025A000E6FFE1CFD9FFE2CFDAFF1200DFCFE6FF8F
:1025B000E66A51EC18F0E552E552F3501200E76E6E
:1025C000080EE7CFDBFF1200EECF00F0EECF01F0F8
:1025D000EFCF02F0036A1200050EDBCF00F0150EFC
:1025E000DB50D88000541200010EDBCF02F0020E47
:1025F000DBCF03F0046A1200E552E5CFDAFFE7CF44
:10260000D9FF12000A0E00C0DBFF0B0E01C0DBFF7A
:102610001200D9500A0F9DEF13F0F36E070EF3CF9F
:10262000DBFF1200EECF00F0EFCF01F01200010E41
:10263000DB2A020E1200FC0EDBCFE6FFFD0EDBCF25
:10264000E6FF1200005E000E015AF70E00C0DBFF2D
:10265000F80E01C0DBFF00C0E9FF01C0EAFF120075
:10266000DA20EA6EEF2AEECFF6FF000EEF22EECF71
:10267000F7FFEF22EECFF8FF1200040EDBCFE6FFEC
:10268000130EDB50E552E75C9ADFDB5004DF060EE9
:10269000DB501200090EDB500A0DF350DF24D00F7F
:1026A000E76E090EE7CFDBFF35EF12F0DB50F36E7C
:1026B000050E63EF12F0F70EDBCF00F0F80EDBCF64
:1026C00001F01200DFCFE6FF3FEF12F028DF030E2C
:1026D000ECDEE4EF12F091EC0DF0E552E552E5523C
:1026E000E55200091200BDDEEE50EFCFEAFFE96EC1
:1026F000010E1200130EDB50F36E040E63EF12F0A6
:10270000040EDB50F36E090E63EF12F0DBCFE6FF31
:102710003FEF12F0E76E050EE7CFDBFF12008BDF15
:1027200062EF13F0DBCFE6FF86DF6BEF13F0D950DB
:10273000F90FE96EFF0E30EF13F0E96E000EDA20AC
:04274000EA6E12002B
:0C2744001B9E0CD01B9E23AE09D0206C05
:10275000211E221E231EE86A2122222223221B8EF2
:1027600023C01DF022C01CF021C02DF020C02CF091
:102770009E0E1E6E1F6AAFEF15F0297E1B6AEBECF2
:1027800015F003EC16F01BB693EF15F01BA20AD060
:102790001BAA03D01BBE93EF15F01BA49FEF15F0EF
:1027A0009CEF15F01BAA05D01BAC9FEF15F09CEF1A
:1027B00015F01BA00AD01BA808D01BBE04D01BA478
:1027C00002D0A8EF15F0ACEF15F02C6A1F6A295063
:1027D000245C2B6E10E321C02DF022C01CF023C01E
:1027E0001DF024C02AF026C021F027C022F028C006
:1027F00023F01B3A09D026C02DF027C01CF028C0BA
:102800001DF029C02AF02B6C1B9E1BBC1B8E2AC0FE
:102810001EF01BB0DBEF15F01A0E2B60DBEF15F08E
:102820001E6A246A1BA408D0216C221E231E241EAB
:10283000E86A2222232224221BAC08D02D6C1C1E05
:102840001D1E1E1EE86A1C221D221E22206A2B52FB
:1028500007E0243423322232213220322B2EF9D7C2
:1028600021502D2622501C2223501D2224501E228E
:1028700020C02CF01B9E1EAE0BD02C6C2D1E1C1EDF
:102880001D1E1E1EE86A2D221C221D221E221B8ECA
:102890001EA006D0D8801D321C322D322C322A2A9E
:1028A0002AC01EF0AFEF15F01B6AEBEC15F003EC3D
:1028B00016F01BB693EF15F01BA205D01BB893EFD3
:1028C00015F09AEF15F01BAA05D01BB093EF15F089
:1028D0009AEF15F01BB002D01BA802D0A6EF15F09E
:1028E0001F6A295024241E6EE86A1F227E0E1E5E77
:1028F000E86A1F5A2C6A2D6A1C6A1D6A2850230236
:10290000F4CF1DF0F3CF1CF027502302F3502D26F7
:10291000F4501C22000E1D2228502202F3502D26B6
:10292000F4501C22000E1D2226502302F3502C26A8
:10293000F4502D22000E1C221D2227502202F3509B
:102940002C26F4502D22000E1C221D22285021027C
:10295000F3502C26F4502D22000E1C221D2226504E
:102960002202F4502C26000E2D221C221D2227505C
:102970002102F4502C26000E2D221C221D22AFEF26
:1029800015F023C02DF022C02CF022502702F4CFE6
:1029900021F0F3CF20F023502802F4CF23F0F3CF1F
:1029A00022F02702F3502126F4502222E86A232243
:1029B0002C502802F3502126F4502222E86A2322C8
:1029C00028AEE7EF14F02C50225E2D50235A2DAE86
:1029D000000C2750225E2850235A000C1B6AEBEC97
:1029E00015F01BB6F8EF14F01BA20FD01BB407D0E4
:1029F0007F0E236EFF0E226E216E206E25D0800E7C
:102A0000236E01D0236A000EF6D71BB0FBD7206AD5
:102A10009F0E2460EBD77E0E2464F4D79E0E245CB8
:102A200007E0D8902332223221322032242AF6D7EE
:102A30001BA40AD0206C211E221E231EE86A21221C
:102A40002222232223AEDED712003EEC15F01BB665
:102A5000000C1BB0010C000C3EEC15F01BB6000C7A
:102A60001BB0000C1BB4000C010C3EEC15F01BB6A7
:102A7000000C1BB0000C1BA4000C010C1B6AEBEC3F
:102A800015F003EC16F01BB612001BAE08D01BA00D
:102A900004D01BA802D01B8012001B9012002950EA
:102AA000245C0BE12850235C08E12750225C05E1FF
:102AB0002650215C02E11B801200D8A002D01B8EA0
:102AC00010D0245029C024F0296E235028C023F0B0
:102AD000286E225027C022F0276E215026C021F0F8
:102AE000266E2950245C10E0FF0F09E01B901BB4F8
:102AF00003D01BAE1B8412001BAE1B941200292AAC
:102B0000D8902832273226322650215E2750225A6A
:102B10002850235A23BEEAD7D890213622362336AE
:102B2000242EF8D7C8D77F0E246EFF0E236E226E98
:102B3000216E12007F0E1BBEFF0E246E02D07F0E90
:102B4000246E800E236E226A216AF3D71BAE04D056
:102B5000800E246E236AF7D7246A236AF4D71D50A7
:102B60001C102D102C10F8E01FBEF0D71DBE0CD08D
:102B70001E501F10EBE0D8902C362D361C361D361B
:102B80001E06D8A01F06F2D71F50D4E11E28D2E09F
:102B90002CAE11D07F0E2C1402E12DA00CD02D2ACA
:102BA000E86A1C221D2207E3D8801D321C322D3218
:102BB0001E2A1E28BFE01E50C9E02DC021F01CC0F7
:102BC00022F01D34236E1E30246E2332249E1BBE41
:102BD000248E99EF15F02336243602E31B841B7EE6
:102BE00006E11B80246A236A226A216A12002428D3
:102BF00003E0D88023321200D890233202E11B82F6
:102C000012001B8612002836293602E31B8C1B7E1D
:102C100006E11B88296A286A276A266A1200292881
:102C200003E0D88028321200D8902832EAE11B8ACB
:022C3000120090
:0E2C3200060EF66E000EF76E000EF86E000134
:102C40000900F550E76F0900F550E86F03E1E76709
:102C500001D03DD00900F550E26F0900F550E36F57
:102C60000900F550E46F09000900F550E96E09000C
:102C7000F550EA6E090009000900F550E56F0900FA
:102C8000F550E66F09000900F6CFE9F0F7CFEAF05A
:102C9000F8CFEBF0E2C0F6FFE3C0F7FFE4C0F8FFC7
:102CA0000001E55302E1E65307E00900F550EE6E3E
:102CB000E507F8E2E607F9D7E9C0F6FFEAC0F7FF53
:102CC000EBC0F8FF0001E707000EE85BBFD712007A
:102CD000D9CFE6FFDACFE6FFE1CFD9FFE2CFDAFFC7
:102CE000E652E652E652E652D950FB0F006EFF0E56
:102CF000DA20016E00C0DEFFDD6EDECFE6FFDDCF45
:102D0000E6FFFB0EDBCFE6FFFC0EDBCFE6FFFD0EA2
:102D1000DBCFE6FFECC0E6FFEDC0E6FFA7EC0DF071
:102D2000006E070EE15C02E2E16AE552E16E0050DE
:102D3000020EF3CFDBFF030EF4CFDBFF020EDBCF7F
:102D400000F0030EDBCF01F000C0F3FF01C0F4FF81
:102D5000040EE15C02E2E16AE552E16EE552E5CF84
:082D6000DAFFE7CFD9FF1200F2
:082D6800D9CFE6FFDACFE6FF48
:102D7000E1CFD9FFE2CFDAFFAC6AAB6AFD0EDBB080
:102D8000AC88DBA202D0AC8CAB8CDBB4AC8EDBA607
:102D900002D0AB8801D0AB8ADBB8AC849E98DBBA9A
:102DA000AB86DBAC02D09D8A01D09D9A9E9ADBAEA9
:102DB00002D09D8801D09D98FB0EDB50AF6EFB0EBC
:102DC000FC0EDBCF01F001C000F0016A0050B06ED4
:102DD000AC8AAB8E949C948EAC50100B04E0AC503B
:102DE000800B01E1948CE552E5CFDAFFE7CFD9FF04
:022DF0001200CF
:0E2DF200D9CFE6FFDACFE6FFE1CFD9FFE2CF7F
:102E0000DAFFFB0EDBCF00F0FC0EDBCF01F00001A0
:102E1000800E01141AE1FB0EDBCFE9FFFC0EDBCFC5
:102E2000EAFFEECFF3FFEDCFF4FFEE2A000EEF2224
:102E3000F3CFE9FFF4CFEAFFFD0EDBCFEFFFEF505A
:102E4000016AF36E01C0F4FF10D0FB0EDB50FE08E8
:102E500006E1FD0EDBCFE6FF93EC18F005D0FD0E8A
:102E6000DBCFE6FFAAEC18F0E552E552E5CFDAFF3A
:062E7000E7CFD9FF1200BC
:0A2E760020502502F3CF1CF0F4CF2A
:102E80001DF02602F3501D26000EF4201E6E205069
:102E90002702F3501E26000EF4201F6E2050280239
:102EA000F3501F2621502502F3501D26F4501E22F8
:102EB000000E1F2221502602F3501E26F4501F221E
:102EC00021502702F3501F2622502502F3501E26C0
:102ED000F4501F2222502602F3501F2623502502B1
:062EE000F3501F26120052
:0A2EE600FE0EE3CFE9FFFF0EE3CF7D
:102EF000EAFFF36AF46AEE5203E0F34AF42AFBD7DE
:102F00001200FF0EE3CFF8FFE552FF0EE3CFF7FF0D
:102F1000E552FF0EE3CFF6FFE552E66AE66AE66A9F
:102F20000900F55209E0FD0EE32A05E1FE0EE32A51
:102F300002E1FF0EE32AF4D7FD0EE3CF21F0FE0EEF
:0C2F4000E3CF22F0FF0EE3CF23F01200DD
:042F4C00D9CFE6FFF4
:102F5000DACFE6FFE1CFD9FFE2CFDAFFACA2FED7AE
:102F6000FB0EDBCFF6FFFC0EDBCFF7FFFD0EDBCF5A
:102F7000F8FF0800F550E66E3AEC18F0E552D9502B
:102F8000FB0FE96EFF0EDA20EA6EEFCFF6FFEE2AB6
:102F9000EFCFF7FF000EEE22EFCFF8FFEE22080092
:102FA000F550DCE1E552E5CFDAFFE7CFD9FF1200BB
:102FB0001F6A1E6A1D6A1C6A200EE76ED8902036B2
:102FC0002136223623361C361D361E361F36255036
:102FD0001C5C26501D5827501E5828501F5809E3C6
:102FE00025501C5E26501D5A27501E5A28501F5A25
:082FF000202AE72EE4D71200AD
:082FF800D9CFE6FFDACFE6FFB6
:10300000E1CFD9FFE2CFDAFFE652F20E0001EE1770
:10301000ABAC03D0EE91ABB0EE81ABB4EE85ABB20E
:10302000EE87AE50DF6EDF50E552E552E5CFDAFFB6
:06303000E7CFD9FF1200FA
:0A3036000A0A0D50726F626C656D9E
:103040006173206361626F732065207472696E63BF
:103050006865697261732E0D0A5175616C20636138
:10306000736F20646520746573746528312D36296B
:033070003A200003
:0C307400D9CFE6FFDACFE6FFE1CFD9FFAD
:10308000E2CFDAFFACAC04D0AC900001EEB3AC8080
:10309000FD0EDB50AD6EE552E5CFDAFFE7CFD9FF8D
:0230A00012001C
:0E30A200F36AF46AFF0EE124E96EFF0EE220ED
:1030B000EA6EED6607D02F0EEF6404D03A0EEF6093
:0630C00001D0F32A12000A
:0A30C6000A0D000A0D4D656E6F72D1
:1030D00020437573746F3A20002E256C7500256CA3
:0A30E00075002D004552524F0A0002
:0630EA00000EF36E00EE83
:1030F00000F0080E01D81200EA6002D0EE6AFCD798
:0A310000F350E9601200EE6AFCD7FC
:06310A0013EE00F023EEBD
:1031100000F0F86A1B9C19EC16F0ABEC18F0C8EC48
:0631200009F0FBD71200CC
:0A312600FF0EE350ACBA04D0AF6A0C
:10313000AB8EAC8A949CACA2FED7AD6EF36EF46AF3
:0231400012007B
:0E3142003031323334353637383961626364E8
:03315000656600B1
:02315400120067
:02315600120065
:02315800FEFF78
:020000040030CA
:0100000000FF
:010001000CF2
:010002001FDE
:010003001EDE
:0100050001F9
:010006008178
:00000001FF
